{
  "contractName": "ConsumerRole",
  "abi": [
    {
      "inputs": [],
      "payable": false,
      "stateMutability": "nonpayable",
      "type": "constructor"
    },
    {
      "anonymous": false,
      "inputs": [
        {
          "indexed": true,
          "name": "_addr",
          "type": "address"
        }
      ],
      "name": "AddingConsumerRole",
      "type": "event"
    },
    {
      "anonymous": false,
      "inputs": [
        {
          "indexed": true,
          "name": "_addr",
          "type": "address"
        }
      ],
      "name": "RemovingConsumerRole",
      "type": "event"
    },
    {
      "constant": true,
      "inputs": [
        {
          "name": "account",
          "type": "address"
        }
      ],
      "name": "isConsumer",
      "outputs": [
        {
          "name": "",
          "type": "bool"
        }
      ],
      "payable": false,
      "stateMutability": "view",
      "type": "function"
    },
    {
      "constant": false,
      "inputs": [
        {
          "name": "account",
          "type": "address"
        }
      ],
      "name": "addConsumer",
      "outputs": [],
      "payable": false,
      "stateMutability": "nonpayable",
      "type": "function"
    },
    {
      "constant": false,
      "inputs": [],
      "name": "renounceConsumer",
      "outputs": [],
      "payable": false,
      "stateMutability": "nonpayable",
      "type": "function"
    }
  ],
  "bytecode": "0x608060405234801561001057600080fd5b506100293361002e640100000000026401000000009004565b6101e8565b61004f816000610095640100000000026102a1179091906401000000009004565b8073ffffffffffffffffffffffffffffffffffffffff167fc86b28215d4a96680e6a28ffaa92132d72fa991850a9f8662bf92f31223ceec960405160405180910390a250565b600073ffffffffffffffffffffffffffffffffffffffff168173ffffffffffffffffffffffffffffffffffffffff16141515156100d157600080fd5b6100ea8282610154640100000000026401000000009004565b1515156100f657600080fd5b60018260000160008373ffffffffffffffffffffffffffffffffffffffff1673ffffffffffffffffffffffffffffffffffffffff16815260200190815260200160002060006101000a81548160ff0219169083151502179055505050565b60008073ffffffffffffffffffffffffffffffffffffffff168273ffffffffffffffffffffffffffffffffffffffff161415151561019157600080fd5b8260000160008373ffffffffffffffffffffffffffffffffffffffff1673ffffffffffffffffffffffffffffffffffffffff16815260200190815260200160002060009054906101000a900460ff16905092915050565b61042c806101f76000396000f300608060405260043610610057576000357c0100000000000000000000000000000000000000000000000000000000900463ffffffff168063112940f91461005c57806361e6982d1461009f578063834ff739146100b6575b600080fd5b34801561006857600080fd5b5061009d600480360381019080803573ffffffffffffffffffffffffffffffffffffffff169060200190929190505050610111565b005b3480156100ab57600080fd5b506100b4610131565b005b3480156100c257600080fd5b506100f7600480360381019080803573ffffffffffffffffffffffffffffffffffffffff16906020019092919050505061013c565b604051808215151515815260200191505060405180910390f35b61011a3361013c565b151561012557600080fd5b61012e81610159565b50565b61013a336101b3565b565b600061015282600061020d90919063ffffffff16565b9050919050565b61016d8160006102a190919063ffffffff16565b8073ffffffffffffffffffffffffffffffffffffffff167fc86b28215d4a96680e6a28ffaa92132d72fa991850a9f8662bf92f31223ceec960405160405180910390a250565b6101c781600061035190919063ffffffff16565b8073ffffffffffffffffffffffffffffffffffffffff167f6c19023bcbe71ecd5b099d6f3f3f41fa9c3fb445261a361debb82c5e95d29ded60405160405180910390a250565b60008073ffffffffffffffffffffffffffffffffffffffff168273ffffffffffffffffffffffffffffffffffffffff161415151561024a57600080fd5b8260000160008373ffffffffffffffffffffffffffffffffffffffff1673ffffffffffffffffffffffffffffffffffffffff16815260200190815260200160002060009054906101000a900460ff16905092915050565b600073ffffffffffffffffffffffffffffffffffffffff168173ffffffffffffffffffffffffffffffffffffffff16141515156102dd57600080fd5b6102e7828261020d565b1515156102f357600080fd5b60018260000160008373ffffffffffffffffffffffffffffffffffffffff1673ffffffffffffffffffffffffffffffffffffffff16815260200190815260200160002060006101000a81548160ff0219169083151502179055505050565b600073ffffffffffffffffffffffffffffffffffffffff168173ffffffffffffffffffffffffffffffffffffffff161415151561038d57600080fd5b610397828261020d565b15156103a257600080fd5b60008260000160008373ffffffffffffffffffffffffffffffffffffffff1673ffffffffffffffffffffffffffffffffffffffff16815260200190815260200160002060006101000a81548160ff02191690831515021790555050505600a165627a7a7230582038283031b22d5d3e601d4af9da4aeeb54f7db34bcd61acdf716f1a6e1cb2bd330029",
  "source": "pragma solidity ^0.4.24;\n\n// Import the library 'Roles'\nimport \"./Roles.sol\";\n\n// Define a contract 'ConsumerRole' to manage this role - add, remove, check\ncontract ConsumerRole {\n\n  using Roles for Roles.Role;\n  // Define 2 events, one for Adding, and other for Removing\n  event AddingConsumerRole(address indexed _addr);\n  event RemovingConsumerRole(address indexed _addr);\n\n  // Define a struct 'consumers' by inheriting from 'Roles' library, struct Role\n  Roles.Role private consumers;\n\n  // In the constructor make the address that deploys this contract the 1st consumer\n  constructor() public {\n    _addConsumer(msg.sender);\n  }\n\n  // Define a modifier that checks to see if msg.sender has the appropriate role\n  modifier onlyConsumer() {\n    require(isConsumer(msg.sender));\n    _;\n  }\n\n  // Define a function 'isConsumer' to check this role\n  function isConsumer(address account) public view returns (bool) {\n    return consumers.has(account);\n  }\n\n  // Define a function 'addConsumer' that adds this role\n  function addConsumer(address account) public onlyConsumer {\n    _addConsumer(account);\n }\n\n  // Define a function 'renounceConsumer' to renounce this role\n  function renounceConsumer() public {\n    _removeConsumer(msg.sender);\n\n  }\n\n  // Define an internal function '_addConsumer' to add this role, called by 'addConsumer'\n  function _addConsumer(address account) internal {\n    consumers.add(account);\n    emit AddingConsumerRole(account);\n\n  }\n\n  // Define an internal function '_removeConsumer' to remove this role, called by 'removeConsumer'\n  function _removeConsumer(address account) internal {\n    consumers.remove(account);\n    emit RemovingConsumerRole(account);\n  }\n}",
  "sourcePath": "/Volumes/Akash/blockchainNanodegree/projSupplyChain/nd1309-Project-6b-Example-Template/project-6/contracts/coffeeaccesscontrol/ConsumerRole.sol",
  "compiler": {
    "name": "solc",
    "version": "0.4.26+commit.4563c3fc.Emscripten.clang"
  },
  "schemaVersion": "3.0.23",
  "updatedAt": "2020-05-16T02:01:51.358Z",
  "networkType": "ethereum",
  "devdoc": {
    "methods": {}
  },
  "userdoc": {
    "methods": {}
  }
}